{
  "_format": "hh-sol-artifact-1",
  "contractName": "CryptoMoney",
  "sourceName": "contracts/CryptoMoney.sol",
  "abi": [
    {
      "inputs": [
        {
          "internalType": "uint256",
          "name": "feePerBill",
          "type": "uint256"
        },
        {
          "internalType": "address",
          "name": "daiContractAddress",
          "type": "address"
        }
      ],
      "stateMutability": "nonpayable",
      "type": "constructor"
    },
    {
      "inputs": [],
      "name": "CryptoMoney__FeeNotMet",
      "type": "error"
    },
    {
      "inputs": [],
      "name": "CryptoMoney__InvalidCode",
      "type": "error"
    },
    {
      "inputs": [],
      "name": "CryptoMoney__InvalidWord",
      "type": "error"
    },
    {
      "inputs": [],
      "name": "CryptoMoney__NoFeesToWithdraw",
      "type": "error"
    },
    {
      "inputs": [],
      "name": "CryptoMoney__NotApproved",
      "type": "error"
    },
    {
      "inputs": [],
      "name": "CryptoMoney__TransferFailed",
      "type": "error"
    },
    {
      "anonymous": false,
      "inputs": [
        {
          "indexed": true,
          "internalType": "uint256",
          "name": "billId",
          "type": "uint256"
        },
        {
          "indexed": true,
          "internalType": "address",
          "name": "funder",
          "type": "address"
        },
        {
          "indexed": false,
          "internalType": "uint256",
          "name": "value",
          "type": "uint256"
        }
      ],
      "name": "BillFunded",
      "type": "event"
    },
    {
      "anonymous": false,
      "inputs": [
        {
          "indexed": true,
          "internalType": "uint256",
          "name": "billId",
          "type": "uint256"
        },
        {
          "indexed": false,
          "internalType": "uint256",
          "name": "value",
          "type": "uint256"
        }
      ],
      "name": "BillIssued",
      "type": "event"
    },
    {
      "anonymous": false,
      "inputs": [
        {
          "indexed": true,
          "internalType": "uint256",
          "name": "billId",
          "type": "uint256"
        },
        {
          "indexed": true,
          "internalType": "address",
          "name": "redeemer",
          "type": "address"
        },
        {
          "indexed": false,
          "internalType": "uint256",
          "name": "value",
          "type": "uint256"
        }
      ],
      "name": "BillRedeemed",
      "type": "event"
    },
    {
      "anonymous": false,
      "inputs": [
        {
          "indexed": true,
          "internalType": "uint256",
          "name": "requestId",
          "type": "uint256"
        },
        {
          "indexed": true,
          "internalType": "address",
          "name": "requester",
          "type": "address"
        },
        {
          "indexed": false,
          "internalType": "uint256",
          "name": "amountPerBill",
          "type": "uint256"
        },
        {
          "indexed": false,
          "internalType": "uint256",
          "name": "billCount",
          "type": "uint256"
        }
      ],
      "name": "NewRequest",
      "type": "event"
    },
    {
      "anonymous": false,
      "inputs": [
        {
          "indexed": true,
          "internalType": "address",
          "name": "previousOwner",
          "type": "address"
        },
        {
          "indexed": true,
          "internalType": "address",
          "name": "newOwner",
          "type": "address"
        }
      ],
      "name": "OwnershipTransferred",
      "type": "event"
    },
    {
      "inputs": [],
      "name": "claimFees",
      "outputs": [],
      "stateMutability": "nonpayable",
      "type": "function"
    },
    {
      "inputs": [
        {
          "internalType": "uint256",
          "name": "billId",
          "type": "uint256"
        },
        {
          "internalType": "uint256",
          "name": "amount",
          "type": "uint256"
        },
        {
          "internalType": "bytes",
          "name": "wordHash",
          "type": "bytes"
        }
      ],
      "name": "fund",
      "outputs": [],
      "stateMutability": "nonpayable",
      "type": "function"
    },
    {
      "inputs": [],
      "name": "getDaiContract",
      "outputs": [
        {
          "internalType": "contract IERC20",
          "name": "",
          "type": "address"
        }
      ],
      "stateMutability": "view",
      "type": "function"
    },
    {
      "inputs": [],
      "name": "getFeePerBill",
      "outputs": [
        {
          "internalType": "uint256",
          "name": "",
          "type": "uint256"
        }
      ],
      "stateMutability": "view",
      "type": "function"
    },
    {
      "inputs": [],
      "name": "getNextBillId",
      "outputs": [
        {
          "internalType": "uint256",
          "name": "",
          "type": "uint256"
        }
      ],
      "stateMutability": "view",
      "type": "function"
    },
    {
      "inputs": [],
      "name": "getNextRequestId",
      "outputs": [
        {
          "internalType": "uint256",
          "name": "",
          "type": "uint256"
        }
      ],
      "stateMutability": "view",
      "type": "function"
    },
    {
      "inputs": [
        {
          "internalType": "uint256",
          "name": "billId",
          "type": "uint256"
        }
      ],
      "name": "getOneBillFromBillId",
      "outputs": [
        {
          "components": [
            {
              "internalType": "uint256",
              "name": "id",
              "type": "uint256"
            },
            {
              "internalType": "uint256",
              "name": "value",
              "type": "uint256"
            },
            {
              "internalType": "bytes32",
              "name": "wordHash",
              "type": "bytes32"
            },
            {
              "internalType": "bytes32",
              "name": "codeHash",
              "type": "bytes32"
            },
            {
              "internalType": "bool",
              "name": "isFunded",
              "type": "bool"
            },
            {
              "internalType": "bool",
              "name": "isRedeemed",
              "type": "bool"
            }
          ],
          "internalType": "struct CryptoMoney.Bill",
          "name": "",
          "type": "tuple"
        }
      ],
      "stateMutability": "view",
      "type": "function"
    },
    {
      "inputs": [
        {
          "internalType": "uint256",
          "name": "requestId",
          "type": "uint256"
        }
      ],
      "name": "getOneRequest",
      "outputs": [
        {
          "components": [
            {
              "internalType": "uint256",
              "name": "amountPerBill",
              "type": "uint256"
            },
            {
              "internalType": "uint256",
              "name": "billCount",
              "type": "uint256"
            },
            {
              "internalType": "bool",
              "name": "isIssued",
              "type": "bool"
            },
            {
              "internalType": "address",
              "name": "requester",
              "type": "address"
            }
          ],
          "internalType": "struct CryptoMoney.Request",
          "name": "",
          "type": "tuple"
        }
      ],
      "stateMutability": "view",
      "type": "function"
    },
    {
      "inputs": [
        {
          "internalType": "uint256",
          "name": "requestId",
          "type": "uint256"
        },
        {
          "internalType": "bytes[]",
          "name": "codeHash",
          "type": "bytes[]"
        }
      ],
      "name": "issueBills",
      "outputs": [],
      "stateMutability": "nonpayable",
      "type": "function"
    },
    {
      "inputs": [],
      "name": "owner",
      "outputs": [
        {
          "internalType": "address",
          "name": "",
          "type": "address"
        }
      ],
      "stateMutability": "view",
      "type": "function"
    },
    {
      "inputs": [
        {
          "internalType": "uint256",
          "name": "billId",
          "type": "uint256"
        },
        {
          "internalType": "string",
          "name": "code",
          "type": "string"
        },
        {
          "internalType": "string",
          "name": "word",
          "type": "string"
        },
        {
          "internalType": "address",
          "name": "redeemAddress",
          "type": "address"
        }
      ],
      "name": "redeem",
      "outputs": [],
      "stateMutability": "nonpayable",
      "type": "function"
    },
    {
      "inputs": [],
      "name": "renounceOwnership",
      "outputs": [],
      "stateMutability": "nonpayable",
      "type": "function"
    },
    {
      "inputs": [
        {
          "internalType": "uint256",
          "name": "amountPerBill",
          "type": "uint256"
        },
        {
          "internalType": "uint256",
          "name": "billCount",
          "type": "uint256"
        }
      ],
      "name": "requestBills",
      "outputs": [],
      "stateMutability": "payable",
      "type": "function"
    },
    {
      "inputs": [
        {
          "internalType": "address",
          "name": "newOwner",
          "type": "address"
        }
      ],
      "name": "transferOwnership",
      "outputs": [],
      "stateMutability": "nonpayable",
      "type": "function"
    },
    {
      "inputs": [
        {
          "internalType": "uint256",
          "name": "updatedFee",
          "type": "uint256"
        }
      ],
      "name": "updateFee",
      "outputs": [],
      "stateMutability": "nonpayable",
      "type": "function"
    },
    {
      "inputs": [
        {
          "internalType": "uint256",
          "name": "billId",
          "type": "uint256"
        },
        {
          "internalType": "string",
          "name": "word",
          "type": "string"
        }
      ],
      "name": "verifyWord",
      "outputs": [
        {
          "internalType": "bool",
          "name": "",
          "type": "bool"
        }
      ],
      "stateMutability": "view",
      "type": "function"
    }
  ],
  "bytecode": "0x60806040523480156200001157600080fd5b50604051620022b0380380620022b0833981810160405281019062000037919062000220565b620000576200004b620000af60201b60201c565b620000b760201b60201c565b8160028190555080600160006101000a81548173ffffffffffffffffffffffffffffffffffffffff021916908373ffffffffffffffffffffffffffffffffffffffff1602179055506001600581905550505062000267565b600033905090565b60008060009054906101000a900473ffffffffffffffffffffffffffffffffffffffff169050816000806101000a81548173ffffffffffffffffffffffffffffffffffffffff021916908373ffffffffffffffffffffffffffffffffffffffff1602179055508173ffffffffffffffffffffffffffffffffffffffff168173ffffffffffffffffffffffffffffffffffffffff167f8be0079c531659141344cd1fd0a4f28419497f9722a3daafe3b4186f6b6457e060405160405180910390a35050565b600080fd5b6000819050919050565b620001958162000180565b8114620001a157600080fd5b50565b600081519050620001b5816200018a565b92915050565b600073ffffffffffffffffffffffffffffffffffffffff82169050919050565b6000620001e882620001bb565b9050919050565b620001fa81620001db565b81146200020657600080fd5b50565b6000815190506200021a81620001ef565b92915050565b600080604083850312156200023a57620002396200017b565b5b60006200024a85828601620001a4565b92505060206200025d8582860162000209565b9150509250929050565b61203980620002776000396000f3fe6080604052600436106100f35760003560e01c80639012c4a81161008a578063d99e735611610059578063d99e7356146102e3578063dfb270701461030e578063f2fde38b1461034b578063fed31d2b14610374576100f3565b80639012c4a81461024f578063ac0ca97f14610278578063d294f093146102a3578063d2e13f50146102ba576100f3565b8063758d8a07116100c6578063758d8a071461017f57806389dc538c146101bc5780638da5cb5b146101e75780638fd1db2314610212576100f3565b806310d4b3ef146100f85780633bc571d9146101215780634e9578741461014c578063715018a614610168575b600080fd5b34801561010457600080fd5b5061011f600480360381019061011a919061153c565b61039d565b005b34801561012d57600080fd5b506101366106f4565b60405161014391906115ea565b60405180910390f35b61016660048036038101906101619190611605565b6106fe565b005b34801561017457600080fd5b5061017d610881565b005b34801561018b57600080fd5b506101a660048036038101906101a19190611645565b610895565b6040516101b39190611730565b60405180910390f35b3480156101c857600080fd5b506101d161092f565b6040516101de91906115ea565b60405180910390f35b3480156101f357600080fd5b506101fc610939565b604051610209919061175a565b60405180910390f35b34801561021e57600080fd5b5061023960048036038101906102349190611645565b610962565b60405161024691906117d9565b60405180910390f35b34801561025b57600080fd5b5061027660048036038101906102719190611645565b610a14565b005b34801561028457600080fd5b5061028d610a26565b60405161029a91906115ea565b60405180910390f35b3480156102af57600080fd5b506102b8610a30565b005b3480156102c657600080fd5b506102e160048036038101906102dc9190611854565b610b18565b005b3480156102ef57600080fd5b506102f8610dd6565b6040516103059190611927565b60405180910390f35b34801561031a57600080fd5b5061033560048036038101906103309190611942565b610e00565b60405161034291906119ad565b60405180910390f35b34801561035757600080fd5b50610372600480360381019061036d91906119c8565b610ea4565b005b34801561038057600080fd5b5061039b60048036038101906103969190611a4b565b610f27565b005b6000600685815481106103b3576103b2611aab565b5b90600052602060002090600502016040518060c0016040529081600082015481526020016001820154815260200160028201548152602001600382015481526020016004820160009054906101000a900460ff161515151581526020016004820160019054906101000a900460ff16151515158152505090508360405160200161043d9190611b54565b604051602081830303815290604052805190602001206040516020016104639190611b8c565b60405160208183030381529060405280519060200120816060015160405160200161048e9190611b8c565b60405160208183030381529060405280519060200120146104db576040517f720961d900000000000000000000000000000000000000000000000000000000815260040160405180910390fd5b826040516020016104ec9190611b54565b604051602081830303815290604052805190602001206040516020016105129190611b8c565b60405160208183030381529060405280519060200120816040015160405160200161053d9190611b8c565b604051602081830303815290604052805190602001201461058a576040517f8ee2dd2200000000000000000000000000000000000000000000000000000000815260040160405180910390fd5b6000816020015190506000600687815481106105a9576105a8611aab565b5b9060005260206000209060050201600101819055506001600687815481106105d4576105d3611aab565b5b906000526020600020906005020160040160016101000a81548160ff021916908315150217905550600160009054906101000a900473ffffffffffffffffffffffffffffffffffffffff1673ffffffffffffffffffffffffffffffffffffffff1663a9059cbb33836040518363ffffffff1660e01b8152600401610659929190611ba7565b6020604051808303816000875af1158015610678573d6000803e3d6000fd5b505050506040513d601f19601f8201168201806040525081019061069c9190611bfc565b508273ffffffffffffffffffffffffffffffffffffffff16867f816e534dcf0d45452e33e655eb85142edb307ee6cbe0b7e5a48f2357e82097b1836040516106e491906115ea565b60405180910390a3505050505050565b6000600354905090565b348160025461070d9190611c58565b1115610745576040517fd37dd26300000000000000000000000000000000000000000000000000000000815260040160405180910390fd5b60405180608001604052808381526020018281526020016000151581526020013373ffffffffffffffffffffffffffffffffffffffff16815250600460006003548152602001908152602001600020600082015181600001556020820151816001015560408201518160020160006101000a81548160ff02191690831515021790555060608201518160020160016101000a81548173ffffffffffffffffffffffffffffffffffffffff021916908373ffffffffffffffffffffffffffffffffffffffff1602179055509050503373ffffffffffffffffffffffffffffffffffffffff166003547f2f0eb673c0c8f9fa871ab69bbaa7ae2e6a722b2c3a4f14ecc52798c68c8e43b6848460405161085d929190611cb2565b60405180910390a36003600081548092919061087890611cdb565b91905055505050565b610889611184565b6108936000611202565b565b61089d6112ce565b600682815481106108b1576108b0611aab565b5b90600052602060002090600502016040518060c0016040529081600082015481526020016001820154815260200160028201548152602001600382015481526020016004820160009054906101000a900460ff161515151581526020016004820160019054906101000a900460ff1615151515815250509050919050565b6000600554905090565b60008060009054906101000a900473ffffffffffffffffffffffffffffffffffffffff16905090565b61096a61130e565b6004600083815260200190815260200160002060405180608001604052908160008201548152602001600182015481526020016002820160009054906101000a900460ff161515151581526020016002820160019054906101000a900473ffffffffffffffffffffffffffffffffffffffff1673ffffffffffffffffffffffffffffffffffffffff1673ffffffffffffffffffffffffffffffffffffffff16815250509050919050565b610a1c611184565b8060028190555050565b6000600254905090565b610a38611184565b60004703610a72576040517f1b6ec47900000000000000000000000000000000000000000000000000000000815260040160405180910390fd5b60003373ffffffffffffffffffffffffffffffffffffffff1647604051610a9890611d54565b60006040518083038185875af1925050503d8060008114610ad5576040519150601f19603f3d011682016040523d82523d6000602084013e610ada565b606091505b5050905080610b15576040517f093c8ae900000000000000000000000000000000000000000000000000000000815260040160405180910390fd5b50565b600060068581548110610b2e57610b2d611aab565b5b90600052602060002090600502016040518060c0016040529081600082015481526020016001820154815260200160028201548152602001600382015481526020016004820160009054906101000a900460ff161515151581526020016004820160019054906101000a900460ff16151515158152505090506000600160009054906101000a900473ffffffffffffffffffffffffffffffffffffffff16905081602001518173ffffffffffffffffffffffffffffffffffffffff1663dd62ed3e33306040518363ffffffff1660e01b8152600401610c0e929190611d69565b602060405180830381865afa158015610c2b573d6000803e3d6000fd5b505050506040513d601f19601f82011682018060405250810190610c4f9190611da7565b14610c86576040517f26ec6f6100000000000000000000000000000000000000000000000000000000815260040160405180910390fd5b838390610c939190611dec565b60068781548110610ca757610ca6611aab565b5b906000526020600020906005020160020181905550600160068781548110610cd257610cd1611aab565b5b906000526020600020906005020160040160006101000a81548160ff0219169083151502179055508073ffffffffffffffffffffffffffffffffffffffff166323b872dd333085602001516040518463ffffffff1660e01b8152600401610d3b93929190611e4b565b6020604051808303816000875af1158015610d5a573d6000803e3d6000fd5b505050506040513d601f19601f82011682018060405250810190610d7e9190611bfc565b503373ffffffffffffffffffffffffffffffffffffffff16867f679c0fa2bd335c7d88d476ff1f96387a45db3e5e008c28bd6fa88b2615117d2c87604051610dc691906115ea565b60405180910390a3505050505050565b6000600160009054906101000a900473ffffffffffffffffffffffffffffffffffffffff16905090565b600081604051602001610e139190611b54565b60405160208183030381529060405280519060200120604051602001610e399190611b8c565b6040516020818303038152906040528051906020012060068481548110610e6357610e62611aab565b5b906000526020600020906005020160020154604051602001610e859190611b8c565b6040516020818303038152906040528051906020012014905092915050565b610eac611184565b600073ffffffffffffffffffffffffffffffffffffffff168173ffffffffffffffffffffffffffffffffffffffff1603610f1b576040517f08c379a0000000000000000000000000000000000000000000000000000000008152600401610f1290611f05565b60405180910390fd5b610f2481611202565b50565b610f2f611184565b60005b8282905081101561114f5760006004600086815260200190815260200160002060405180608001604052908160008201548152602001600182015481526020016002820160009054906101000a900460ff161515151581526020016002820160019054906101000a900473ffffffffffffffffffffffffffffffffffffffff1673ffffffffffffffffffffffffffffffffffffffff1673ffffffffffffffffffffffffffffffffffffffff1681525050905060066040518060c00160405280600554815260200183600001518152602001600080191681526020018686868181106110205761101f611aab565b5b90506020028101906110329190611f34565b9061103d9190611dec565b81526020016000151581526020016000151581525090806001815401808255809150506001900390600052602060002090600502016000909190919091506000820151816000015560208201518160010155604082015181600201556060820151816003015560808201518160040160006101000a81548160ff02191690831515021790555060a08201518160040160016101000a81548160ff02191690831515021790555050506005547f487e7c9b0bbf56330e4a2bd71dc23c0c96e56ab21ab070bf9c01054e933e1a5f826000015160405161111b91906115ea565b60405180910390a26005600081548092919061113690611cdb565b919050555050808061114790611cdb565b915050610f32565b5060016004600085815260200190815260200160002060020160006101000a81548160ff021916908315150217905550505050565b61118c6112c6565b73ffffffffffffffffffffffffffffffffffffffff166111aa610939565b73ffffffffffffffffffffffffffffffffffffffff1614611200576040517f08c379a00000000000000000000000000000000000000000000000000000000081526004016111f790611fe3565b60405180910390fd5b565b60008060009054906101000a900473ffffffffffffffffffffffffffffffffffffffff169050816000806101000a81548173ffffffffffffffffffffffffffffffffffffffff021916908373ffffffffffffffffffffffffffffffffffffffff1602179055508173ffffffffffffffffffffffffffffffffffffffff168173ffffffffffffffffffffffffffffffffffffffff167f8be0079c531659141344cd1fd0a4f28419497f9722a3daafe3b4186f6b6457e060405160405180910390a35050565b600033905090565b6040518060c00160405280600081526020016000815260200160008019168152602001600080191681526020016000151581526020016000151581525090565b60405180608001604052806000815260200160008152602001600015158152602001600073ffffffffffffffffffffffffffffffffffffffff1681525090565b6000604051905090565b600080fd5b600080fd5b6000819050919050565b61137581611362565b811461138057600080fd5b50565b6000813590506113928161136c565b92915050565b600080fd5b600080fd5b6000601f19601f8301169050919050565b7f4e487b7100000000000000000000000000000000000000000000000000000000600052604160045260246000fd5b6113eb826113a2565b810181811067ffffffffffffffff8211171561140a576114096113b3565b5b80604052505050565b600061141d61134e565b905061142982826113e2565b919050565b600067ffffffffffffffff821115611449576114486113b3565b5b611452826113a2565b9050602081019050919050565b82818337600083830152505050565b600061148161147c8461142e565b611413565b90508281526020810184848401111561149d5761149c61139d565b5b6114a884828561145f565b509392505050565b600082601f8301126114c5576114c4611398565b5b81356114d584826020860161146e565b91505092915050565b600073ffffffffffffffffffffffffffffffffffffffff82169050919050565b6000611509826114de565b9050919050565b611519816114fe565b811461152457600080fd5b50565b60008135905061153681611510565b92915050565b6000806000806080858703121561155657611555611358565b5b600061156487828801611383565b945050602085013567ffffffffffffffff8111156115855761158461135d565b5b611591878288016114b0565b935050604085013567ffffffffffffffff8111156115b2576115b161135d565b5b6115be878288016114b0565b92505060606115cf87828801611527565b91505092959194509250565b6115e481611362565b82525050565b60006020820190506115ff60008301846115db565b92915050565b6000806040838503121561161c5761161b611358565b5b600061162a85828601611383565b925050602061163b85828601611383565b9150509250929050565b60006020828403121561165b5761165a611358565b5b600061166984828501611383565b91505092915050565b61167b81611362565b82525050565b6000819050919050565b61169481611681565b82525050565b60008115159050919050565b6116af8161169a565b82525050565b60c0820160008201516116cb6000850182611672565b5060208201516116de6020850182611672565b5060408201516116f1604085018261168b565b506060820151611704606085018261168b565b50608082015161171760808501826116a6565b5060a082015161172a60a08501826116a6565b50505050565b600060c08201905061174560008301846116b5565b92915050565b611754816114fe565b82525050565b600060208201905061176f600083018461174b565b92915050565b61177e816114fe565b82525050565b60808201600082015161179a6000850182611672565b5060208201516117ad6020850182611672565b5060408201516117c060408501826116a6565b5060608201516117d36060850182611775565b50505050565b60006080820190506117ee6000830184611784565b92915050565b600080fd5b600080fd5b60008083601f84011261181457611813611398565b5b8235905067ffffffffffffffff811115611831576118306117f4565b5b60208301915083600182028301111561184d5761184c6117f9565b5b9250929050565b6000806000806060858703121561186e5761186d611358565b5b600061187c87828801611383565b945050602061188d87828801611383565b935050604085013567ffffffffffffffff8111156118ae576118ad61135d565b5b6118ba878288016117fe565b925092505092959194509250565b6000819050919050565b60006118ed6118e86118e3846114de565b6118c8565b6114de565b9050919050565b60006118ff826118d2565b9050919050565b6000611911826118f4565b9050919050565b61192181611906565b82525050565b600060208201905061193c6000830184611918565b92915050565b6000806040838503121561195957611958611358565b5b600061196785828601611383565b925050602083013567ffffffffffffffff8111156119885761198761135d565b5b611994858286016114b0565b9150509250929050565b6119a78161169a565b82525050565b60006020820190506119c2600083018461199e565b92915050565b6000602082840312156119de576119dd611358565b5b60006119ec84828501611527565b91505092915050565b60008083601f840112611a0b57611a0a611398565b5b8235905067ffffffffffffffff811115611a2857611a276117f4565b5b602083019150836020820283011115611a4457611a436117f9565b5b9250929050565b600080600060408486031215611a6457611a63611358565b5b6000611a7286828701611383565b935050602084013567ffffffffffffffff811115611a9357611a9261135d565b5b611a9f868287016119f5565b92509250509250925092565b7f4e487b7100000000000000000000000000000000000000000000000000000000600052603260045260246000fd5b600081519050919050565b600081905092915050565b60005b83811015611b0e578082015181840152602081019050611af3565b83811115611b1d576000848401525b50505050565b6000611b2e82611ada565b611b388185611ae5565b9350611b48818560208601611af0565b80840191505092915050565b6000611b608284611b23565b915081905092915050565b6000819050919050565b611b86611b8182611681565b611b6b565b82525050565b6000611b988284611b75565b60208201915081905092915050565b6000604082019050611bbc600083018561174b565b611bc960208301846115db565b9392505050565b611bd98161169a565b8114611be457600080fd5b50565b600081519050611bf681611bd0565b92915050565b600060208284031215611c1257611c11611358565b5b6000611c2084828501611be7565b91505092915050565b7f4e487b7100000000000000000000000000000000000000000000000000000000600052601160045260246000fd5b6000611c6382611362565b9150611c6e83611362565b9250817fffffffffffffffffffffffffffffffffffffffffffffffffffffffffffffffff0483118215151615611ca757611ca6611c29565b5b828202905092915050565b6000604082019050611cc760008301856115db565b611cd460208301846115db565b9392505050565b6000611ce682611362565b91507fffffffffffffffffffffffffffffffffffffffffffffffffffffffffffffffff8203611d1857611d17611c29565b5b600182019050919050565b600081905092915050565b50565b6000611d3e600083611d23565b9150611d4982611d2e565b600082019050919050565b6000611d5f82611d31565b9150819050919050565b6000604082019050611d7e600083018561174b565b611d8b602083018461174b565b9392505050565b600081519050611da18161136c565b92915050565b600060208284031215611dbd57611dbc611358565b5b6000611dcb84828501611d92565b91505092915050565b600082905092915050565b600082821b905092915050565b6000611df88383611dd4565b82611e038135611681565b92506020821015611e4357611e3e7fffffffffffffffffffffffffffffffffffffffffffffffffffffffffffffffff83602003600802611ddf565b831692505b505092915050565b6000606082019050611e60600083018661174b565b611e6d602083018561174b565b611e7a60408301846115db565b949350505050565b600082825260208201905092915050565b7f4f776e61626c653a206e6577206f776e657220697320746865207a65726f206160008201527f6464726573730000000000000000000000000000000000000000000000000000602082015250565b6000611eef602683611e82565b9150611efa82611e93565b604082019050919050565b60006020820190508181036000830152611f1e81611ee2565b9050919050565b600080fd5b600080fd5b600080fd5b60008083356001602003843603038112611f5157611f50611f25565b5b80840192508235915067ffffffffffffffff821115611f7357611f72611f2a565b5b602083019250600182023603831315611f8f57611f8e611f2f565b5b509250929050565b7f4f776e61626c653a2063616c6c6572206973206e6f7420746865206f776e6572600082015250565b6000611fcd602083611e82565b9150611fd882611f97565b602082019050919050565b60006020820190508181036000830152611ffc81611fc0565b905091905056fea264697066735822122064f933d6e3d57df9f1affc77b5946ba5a4babfb9e4300fd817e5bd6d8666d0fd64736f6c634300080d0033",
  "linkReferences": {},
  "deployedLinkReferences": {}
}