{
  "_format": "hh-sol-artifact-1",
  "contractName": "CryptoMoney",
  "sourceName": "contracts/CryptoMoney.sol",
  "abi": [
    {
      "inputs": [
        {
          "internalType": "uint256",
          "name": "feePerBill",
          "type": "uint256"
        },
        {
          "internalType": "address",
          "name": "daiContractAddress",
          "type": "address"
        }
      ],
      "stateMutability": "nonpayable",
      "type": "constructor"
    },
    {
      "inputs": [],
      "name": "CryptoMoney__FeeNotMet",
      "type": "error"
    },
    {
      "inputs": [],
      "name": "CryptoMoney__InvalidCode",
      "type": "error"
    },
    {
      "inputs": [],
      "name": "CryptoMoney__InvalidWord",
      "type": "error"
    },
    {
      "inputs": [],
      "name": "CryptoMoney__NoFeesToWithdraw",
      "type": "error"
    },
    {
      "inputs": [],
      "name": "CryptoMoney__NotApproved",
      "type": "error"
    },
    {
      "inputs": [],
      "name": "CryptoMoney__TransferFailed",
      "type": "error"
    },
    {
      "anonymous": false,
      "inputs": [
        {
          "indexed": true,
          "internalType": "uint256",
          "name": "billId",
          "type": "uint256"
        },
        {
          "indexed": true,
          "internalType": "address",
          "name": "funder",
          "type": "address"
        },
        {
          "indexed": false,
          "internalType": "uint256",
          "name": "value",
          "type": "uint256"
        }
      ],
      "name": "BillFunded",
      "type": "event"
    },
    {
      "anonymous": false,
      "inputs": [
        {
          "indexed": true,
          "internalType": "uint256",
          "name": "billId",
          "type": "uint256"
        },
        {
          "indexed": false,
          "internalType": "uint256",
          "name": "value",
          "type": "uint256"
        }
      ],
      "name": "BillIssued",
      "type": "event"
    },
    {
      "anonymous": false,
      "inputs": [
        {
          "indexed": true,
          "internalType": "uint256",
          "name": "billId",
          "type": "uint256"
        },
        {
          "indexed": true,
          "internalType": "address",
          "name": "redeemer",
          "type": "address"
        },
        {
          "indexed": false,
          "internalType": "uint256",
          "name": "value",
          "type": "uint256"
        }
      ],
      "name": "BillRedeemed",
      "type": "event"
    },
    {
      "anonymous": false,
      "inputs": [
        {
          "indexed": true,
          "internalType": "uint256",
          "name": "requestId",
          "type": "uint256"
        },
        {
          "indexed": true,
          "internalType": "address",
          "name": "requester",
          "type": "address"
        },
        {
          "indexed": false,
          "internalType": "uint256",
          "name": "amountPerBill",
          "type": "uint256"
        },
        {
          "indexed": false,
          "internalType": "uint256",
          "name": "billCount",
          "type": "uint256"
        }
      ],
      "name": "NewRequest",
      "type": "event"
    },
    {
      "anonymous": false,
      "inputs": [
        {
          "indexed": true,
          "internalType": "address",
          "name": "previousOwner",
          "type": "address"
        },
        {
          "indexed": true,
          "internalType": "address",
          "name": "newOwner",
          "type": "address"
        }
      ],
      "name": "OwnershipTransferred",
      "type": "event"
    },
    {
      "inputs": [],
      "name": "claimFees",
      "outputs": [],
      "stateMutability": "nonpayable",
      "type": "function"
    },
    {
      "inputs": [
        {
          "internalType": "uint256",
          "name": "billId",
          "type": "uint256"
        },
        {
          "internalType": "uint256",
          "name": "amount",
          "type": "uint256"
        },
        {
          "internalType": "string",
          "name": "codeHash",
          "type": "string"
        }
      ],
      "name": "fund",
      "outputs": [],
      "stateMutability": "nonpayable",
      "type": "function"
    },
    {
      "inputs": [],
      "name": "getDaiContract",
      "outputs": [
        {
          "internalType": "contract IERC20",
          "name": "",
          "type": "address"
        }
      ],
      "stateMutability": "view",
      "type": "function"
    },
    {
      "inputs": [],
      "name": "getFeePerBill",
      "outputs": [
        {
          "internalType": "uint256",
          "name": "",
          "type": "uint256"
        }
      ],
      "stateMutability": "view",
      "type": "function"
    },
    {
      "inputs": [],
      "name": "getNextBillId",
      "outputs": [
        {
          "internalType": "uint256",
          "name": "",
          "type": "uint256"
        }
      ],
      "stateMutability": "view",
      "type": "function"
    },
    {
      "inputs": [],
      "name": "getNextRequestId",
      "outputs": [
        {
          "internalType": "uint256",
          "name": "",
          "type": "uint256"
        }
      ],
      "stateMutability": "view",
      "type": "function"
    },
    {
      "inputs": [
        {
          "internalType": "uint256",
          "name": "billId",
          "type": "uint256"
        }
      ],
      "name": "getOneBillFromBillId",
      "outputs": [
        {
          "components": [
            {
              "internalType": "uint256",
              "name": "id",
              "type": "uint256"
            },
            {
              "internalType": "uint256",
              "name": "value",
              "type": "uint256"
            },
            {
              "internalType": "string",
              "name": "wordHash",
              "type": "string"
            },
            {
              "internalType": "string",
              "name": "codeHash",
              "type": "string"
            },
            {
              "internalType": "bool",
              "name": "isFunded",
              "type": "bool"
            },
            {
              "internalType": "bool",
              "name": "isRedeemed",
              "type": "bool"
            }
          ],
          "internalType": "struct CryptoMoney.Bill",
          "name": "",
          "type": "tuple"
        }
      ],
      "stateMutability": "view",
      "type": "function"
    },
    {
      "inputs": [
        {
          "internalType": "uint256",
          "name": "requestId",
          "type": "uint256"
        }
      ],
      "name": "getOneRequest",
      "outputs": [
        {
          "components": [
            {
              "internalType": "uint256",
              "name": "amountPerBill",
              "type": "uint256"
            },
            {
              "internalType": "uint256",
              "name": "billCount",
              "type": "uint256"
            },
            {
              "internalType": "bool",
              "name": "isIssued",
              "type": "bool"
            },
            {
              "internalType": "address",
              "name": "requester",
              "type": "address"
            }
          ],
          "internalType": "struct CryptoMoney.Request",
          "name": "",
          "type": "tuple"
        }
      ],
      "stateMutability": "view",
      "type": "function"
    },
    {
      "inputs": [
        {
          "internalType": "uint256",
          "name": "requestId",
          "type": "uint256"
        },
        {
          "internalType": "string[]",
          "name": "codeHash",
          "type": "string[]"
        }
      ],
      "name": "issueBills",
      "outputs": [],
      "stateMutability": "nonpayable",
      "type": "function"
    },
    {
      "inputs": [],
      "name": "owner",
      "outputs": [
        {
          "internalType": "address",
          "name": "",
          "type": "address"
        }
      ],
      "stateMutability": "view",
      "type": "function"
    },
    {
      "inputs": [
        {
          "internalType": "uint256",
          "name": "billId",
          "type": "uint256"
        },
        {
          "internalType": "string",
          "name": "code",
          "type": "string"
        },
        {
          "internalType": "string",
          "name": "word",
          "type": "string"
        }
      ],
      "name": "redeem",
      "outputs": [],
      "stateMutability": "nonpayable",
      "type": "function"
    },
    {
      "inputs": [],
      "name": "renounceOwnership",
      "outputs": [],
      "stateMutability": "nonpayable",
      "type": "function"
    },
    {
      "inputs": [
        {
          "internalType": "uint256",
          "name": "amountPerBill",
          "type": "uint256"
        },
        {
          "internalType": "uint256",
          "name": "billCount",
          "type": "uint256"
        }
      ],
      "name": "requestBills",
      "outputs": [],
      "stateMutability": "payable",
      "type": "function"
    },
    {
      "inputs": [
        {
          "internalType": "address",
          "name": "newOwner",
          "type": "address"
        }
      ],
      "name": "transferOwnership",
      "outputs": [],
      "stateMutability": "nonpayable",
      "type": "function"
    },
    {
      "inputs": [
        {
          "internalType": "uint256",
          "name": "updatedFee",
          "type": "uint256"
        }
      ],
      "name": "updateFee",
      "outputs": [],
      "stateMutability": "nonpayable",
      "type": "function"
    }
  ],
  "bytecode": "0x60806040523480156200001157600080fd5b506040516200263e3803806200263e833981810160405281019062000037919062000220565b620000576200004b620000af60201b60201c565b620000b760201b60201c565b8160058190555080600160006101000a81548173ffffffffffffffffffffffffffffffffffffffff021916908373ffffffffffffffffffffffffffffffffffffffff1602179055506001600581905550505062000267565b600033905090565b60008060009054906101000a900473ffffffffffffffffffffffffffffffffffffffff169050816000806101000a81548173ffffffffffffffffffffffffffffffffffffffff021916908373ffffffffffffffffffffffffffffffffffffffff1602179055508173ffffffffffffffffffffffffffffffffffffffff168173ffffffffffffffffffffffffffffffffffffffff167f8be0079c531659141344cd1fd0a4f28419497f9722a3daafe3b4186f6b6457e060405160405180910390a35050565b600080fd5b6000819050919050565b620001958162000180565b8114620001a157600080fd5b50565b600081519050620001b5816200018a565b92915050565b600073ffffffffffffffffffffffffffffffffffffffff82169050919050565b6000620001e882620001bb565b9050919050565b620001fa81620001db565b81146200020657600080fd5b50565b6000815190506200021a81620001ef565b92915050565b600080604083850312156200023a57620002396200017b565b5b60006200024a85828601620001a4565b92505060206200025d8582860162000209565b9150509250929050565b6123c780620002776000396000f3fe6080604052600436106100e85760003560e01c80639012c4a81161008a578063d99e735611610059578063d99e7356146102af578063ef785287146102da578063f0c6232a14610303578063f2fde38b1461032c576100e8565b80639012c4a81461021b578063a26bf0cd14610244578063ac0ca97f1461026d578063d294f09314610298576100e8565b8063758d8a07116100c6578063758d8a071461014b57806389dc538c146101885780638da5cb5b146101b35780638fd1db23146101de576100e8565b80633bc571d9146100ed5780634e95787414610118578063715018a614610134575b600080fd5b3480156100f957600080fd5b50610102610355565b60405161010f9190611772565b60405180910390f35b610132600480360381019061012d91906117c3565b61035f565b005b34801561014057600080fd5b506101496104e1565b005b34801561015757600080fd5b50610172600480360381019061016d9190611803565b6104f5565b60405161017f9190611983565b60405180910390f35b34801561019457600080fd5b5061019d61069f565b6040516101aa9190611772565b60405180910390f35b3480156101bf57600080fd5b506101c86106a9565b6040516101d591906119e6565b60405180910390f35b3480156101ea57600080fd5b5061020560048036038101906102009190611803565b6106d2565b6040516102129190611a65565b60405180910390f35b34801561022757600080fd5b50610242600480360381019061023d9190611803565b610784565b005b34801561025057600080fd5b5061026b60048036038101906102669190611ae5565b610796565b005b34801561027957600080fd5b50610282610bdb565b60405161028f9190611772565b60405180910390f35b3480156102a457600080fd5b506102ad610be5565b005b3480156102bb57600080fd5b506102c4610cce565b6040516102d19190611bd9565b60405180910390f35b3480156102e657600080fd5b5061030160048036038101906102fc9190611c4a565b610cf8565b005b34801561030f57600080fd5b5061032a60048036038101906103259190611caa565b610fc2565b005b34801561033857600080fd5b50610353600480360381019061034e9190611d4a565b6113e8565b005b6000600354905090565b348160025461036e9190611da6565b116103a5576040517fd37dd26300000000000000000000000000000000000000000000000000000000815260040160405180910390fd5b60405180608001604052808381526020018281526020016000151581526020013373ffffffffffffffffffffffffffffffffffffffff16815250600460006003548152602001908152602001600020600082015181600001556020820151816001015560408201518160020160006101000a81548160ff02191690831515021790555060608201518160020160016101000a81548173ffffffffffffffffffffffffffffffffffffffff021916908373ffffffffffffffffffffffffffffffffffffffff1602179055509050503373ffffffffffffffffffffffffffffffffffffffff166003547f2f0eb673c0c8f9fa871ab69bbaa7ae2e6a722b2c3a4f14ecc52798c68c8e43b684846040516104bd929190611e00565b60405180910390a3600360008154809291906104d890611e29565b91905055505050565b6104e961146c565b6104f360006114ea565b565b6104fd6115b6565b6006828154811061051157610510611e72565b5b90600052602060002090600502016040518060c0016040529081600082015481526020016001820154815260200160028201805461054e90611ed0565b80601f016020809104026020016040519081016040528092919081815260200182805461057a90611ed0565b80156105c75780601f1061059c576101008083540402835291602001916105c7565b820191906000526020600020905b8154815290600101906020018083116105aa57829003601f168201915b505050505081526020016003820180546105e090611ed0565b80601f016020809104026020016040519081016040528092919081815260200182805461060c90611ed0565b80156106595780601f1061062e57610100808354040283529160200191610659565b820191906000526020600020905b81548152906001019060200180831161063c57829003601f168201915b505050505081526020016004820160009054906101000a900460ff161515151581526020016004820160019054906101000a900460ff1615151515815250509050919050565b6000600554905090565b60008060009054906101000a900473ffffffffffffffffffffffffffffffffffffffff16905090565b6106da6115f0565b6004600083815260200190815260200160002060405180608001604052908160008201548152602001600182015481526020016002820160009054906101000a900460ff161515151581526020016002820160019054906101000a900473ffffffffffffffffffffffffffffffffffffffff1673ffffffffffffffffffffffffffffffffffffffff1673ffffffffffffffffffffffffffffffffffffffff16815250509050919050565b61078c61146c565b8060028190555050565b6000600686815481106107ac576107ab611e72565b5b90600052602060002090600502016040518060c001604052908160008201548152602001600182015481526020016002820180546107e990611ed0565b80601f016020809104026020016040519081016040528092919081815260200182805461081590611ed0565b80156108625780601f1061083757610100808354040283529160200191610862565b820191906000526020600020905b81548152906001019060200180831161084557829003601f168201915b5050505050815260200160038201805461087b90611ed0565b80601f01602080910402602001604051908101604052809291908181526020018280546108a790611ed0565b80156108f45780601f106108c9576101008083540402835291602001916108f4565b820191906000526020600020905b8154815290600101906020018083116108d757829003601f168201915b505050505081526020016004820160009054906101000a900460ff161515151581526020016004820160019054906101000a900460ff1615151515815250509050806060015160405160200161094a9190611f3e565b60405160208183030381529060405261096290611f9c565b8585604051602001610975929190612037565b60405160208183030381529060405280519060200120146109c2576040517f720961d900000000000000000000000000000000000000000000000000000000815260040160405180910390fd5b80604001516040516020016109d79190611f3e565b6040516020818303038152906040526109ef90611f9c565b8383604051602001610a02929190612037565b6040516020818303038152906040528051906020012014610a4f576040517f8ee2dd2200000000000000000000000000000000000000000000000000000000815260040160405180910390fd5b600160068781548110610a6557610a64611e72565b5b906000526020600020906005020160040160016101000a81548160ff0219169083151502179055506000600160009054906101000a900473ffffffffffffffffffffffffffffffffffffffff1673ffffffffffffffffffffffffffffffffffffffff1663a9059cbb3384602001516040518363ffffffff1660e01b8152600401610af0929190612050565b602060405180830381600087803b158015610b0a57600080fd5b505af1158015610b1e573d6000803e3d6000fd5b505050506040513d601f19601f82011682018060405250810190610b4291906120a5565b905080610b7b576040517f093c8ae900000000000000000000000000000000000000000000000000000000815260040160405180910390fd5b3373ffffffffffffffffffffffffffffffffffffffff1682600001517f816e534dcf0d45452e33e655eb85142edb307ee6cbe0b7e5a48f2357e82097b18460200151604051610bca9190611772565b60405180910390a350505050505050565b6000600254905090565b610bed61146c565b6000471415610c28576040517f1b6ec47900000000000000000000000000000000000000000000000000000000815260040160405180910390fd5b60003373ffffffffffffffffffffffffffffffffffffffff1647604051610c4e90612103565b60006040518083038185875af1925050503d8060008114610c8b576040519150601f19603f3d011682016040523d82523d6000602084013e610c90565b606091505b5050905080610ccb576040517f093c8ae900000000000000000000000000000000000000000000000000000000815260040160405180910390fd5b50565b6000600160009054906101000a900473ffffffffffffffffffffffffffffffffffffffff16905090565b610d0061146c565b60005b82829050811015610f715760006004600086815260200190815260200160002060405180608001604052908160008201548152602001600182015481526020016002820160009054906101000a900460ff161515151581526020016002820160019054906101000a900473ffffffffffffffffffffffffffffffffffffffff1673ffffffffffffffffffffffffffffffffffffffff1673ffffffffffffffffffffffffffffffffffffffff1681525050905060066040518060c00160405280600554815260200183600001518152602001604051806020016040528060008152508152602001868686818110610dfc57610dfb611e72565b5b9050602002810190610e0e9190612127565b8080601f016020809104026020016040519081016040528093929190818152602001838380828437600081840152601f19601f82011690508083019250505050505050815260200160001515815260200160001515815250908060018154018082558091505060019003906000526020600020906005020160009091909190915060008201518160000155602082015181600101556040820151816002019080519060200190610ebf929190611630565b506060820151816003019080519060200190610edc929190611630565b5060808201518160040160006101000a81548160ff02191690831515021790555060a08201518160040160016101000a81548160ff02191690831515021790555050506005547f487e7c9b0bbf56330e4a2bd71dc23c0c96e56ab21ab070bf9c01054e933e1a5f8260000151604051610f559190611772565b60405180910390a2508080610f6990611e29565b915050610d03565b5060016004600085815260200190815260200160002060020160006101000a81548160ff0219169083151502179055508181905060056000828254610fb6919061218a565b92505081905550505050565b600060068581548110610fd857610fd7611e72565b5b90600052602060002090600502016040518060c0016040529081600082015481526020016001820154815260200160028201805461101590611ed0565b80601f016020809104026020016040519081016040528092919081815260200182805461104190611ed0565b801561108e5780601f106110635761010080835404028352916020019161108e565b820191906000526020600020905b81548152906001019060200180831161107157829003601f168201915b505050505081526020016003820180546110a790611ed0565b80601f01602080910402602001604051908101604052809291908181526020018280546110d390611ed0565b80156111205780601f106110f557610100808354040283529160200191611120565b820191906000526020600020905b81548152906001019060200180831161110357829003601f168201915b505050505081526020016004820160009054906101000a900460ff161515151581526020016004820160019054906101000a900460ff16151515158152505090506000600160009054906101000a900473ffffffffffffffffffffffffffffffffffffffff16905081602001518173ffffffffffffffffffffffffffffffffffffffff1663dd62ed3e33306040518363ffffffff1660e01b81526004016111c89291906121e0565b60206040518083038186803b1580156111e057600080fd5b505afa1580156111f4573d6000803e3d6000fd5b505050506040513d601f19601f82011682018060405250810190611218919061221e565b1461124f576040517f26ec6f6100000000000000000000000000000000000000000000000000000000815260040160405180910390fd5b83836006888154811061126557611264611e72565b5b906000526020600020906005020160030191906112839291906116b6565b5060016006878154811061129a57611299611e72565b5b906000526020600020906005020160040160006101000a81548160ff02191690831515021790555060008173ffffffffffffffffffffffffffffffffffffffff166323b872dd333086602001516040518463ffffffff1660e01b81526004016113059392919061224b565b602060405180830381600087803b15801561131f57600080fd5b505af1158015611333573d6000803e3d6000fd5b505050506040513d601f19601f8201168201806040525081019061135791906120a5565b905080611390576040517f093c8ae900000000000000000000000000000000000000000000000000000000815260040160405180910390fd5b3373ffffffffffffffffffffffffffffffffffffffff16877f679c0fa2bd335c7d88d476ff1f96387a45db3e5e008c28bd6fa88b2615117d2c886040516113d79190611772565b60405180910390a350505050505050565b6113f061146c565b600073ffffffffffffffffffffffffffffffffffffffff168173ffffffffffffffffffffffffffffffffffffffff161415611460576040517f08c379a000000000000000000000000000000000000000000000000000000000815260040161145790612305565b60405180910390fd5b611469816114ea565b50565b6114746115ae565b73ffffffffffffffffffffffffffffffffffffffff166114926106a9565b73ffffffffffffffffffffffffffffffffffffffff16146114e8576040517f08c379a00000000000000000000000000000000000000000000000000000000081526004016114df90612371565b60405180910390fd5b565b60008060009054906101000a900473ffffffffffffffffffffffffffffffffffffffff169050816000806101000a81548173ffffffffffffffffffffffffffffffffffffffff021916908373ffffffffffffffffffffffffffffffffffffffff1602179055508173ffffffffffffffffffffffffffffffffffffffff168173ffffffffffffffffffffffffffffffffffffffff167f8be0079c531659141344cd1fd0a4f28419497f9722a3daafe3b4186f6b6457e060405160405180910390a35050565b600033905090565b6040518060c00160405280600081526020016000815260200160608152602001606081526020016000151581526020016000151581525090565b60405180608001604052806000815260200160008152602001600015158152602001600073ffffffffffffffffffffffffffffffffffffffff1681525090565b82805461163c90611ed0565b90600052602060002090601f01602090048101928261165e57600085556116a5565b82601f1061167757805160ff19168380011785556116a5565b828001600101855582156116a5579182015b828111156116a4578251825591602001919060010190611689565b5b5090506116b2919061173c565b5090565b8280546116c290611ed0565b90600052602060002090601f0160209004810192826116e4576000855561172b565b82601f106116fd57803560ff191683800117855561172b565b8280016001018555821561172b579182015b8281111561172a57823582559160200191906001019061170f565b5b509050611738919061173c565b5090565b5b8082111561175557600081600090555060010161173d565b5090565b6000819050919050565b61176c81611759565b82525050565b60006020820190506117876000830184611763565b92915050565b600080fd5b600080fd5b6117a081611759565b81146117ab57600080fd5b50565b6000813590506117bd81611797565b92915050565b600080604083850312156117da576117d961178d565b5b60006117e8858286016117ae565b92505060206117f9858286016117ae565b9150509250929050565b6000602082840312156118195761181861178d565b5b6000611827848285016117ae565b91505092915050565b61183981611759565b82525050565b600081519050919050565b600082825260208201905092915050565b60005b8381101561187957808201518184015260208101905061185e565b83811115611888576000848401525b50505050565b6000601f19601f8301169050919050565b60006118aa8261183f565b6118b4818561184a565b93506118c481856020860161185b565b6118cd8161188e565b840191505092915050565b60008115159050919050565b6118ed816118d8565b82525050565b600060c08301600083015161190b6000860182611830565b50602083015161191e6020860182611830565b5060408301518482036040860152611936828261189f565b91505060608301518482036060860152611950828261189f565b915050608083015161196560808601826118e4565b5060a083015161197860a08601826118e4565b508091505092915050565b6000602082019050818103600083015261199d81846118f3565b905092915050565b600073ffffffffffffffffffffffffffffffffffffffff82169050919050565b60006119d0826119a5565b9050919050565b6119e0816119c5565b82525050565b60006020820190506119fb60008301846119d7565b92915050565b611a0a816119c5565b82525050565b608082016000820151611a266000850182611830565b506020820151611a396020850182611830565b506040820151611a4c60408501826118e4565b506060820151611a5f6060850182611a01565b50505050565b6000608082019050611a7a6000830184611a10565b92915050565b600080fd5b600080fd5b600080fd5b60008083601f840112611aa557611aa4611a80565b5b8235905067ffffffffffffffff811115611ac257611ac1611a85565b5b602083019150836001820283011115611ade57611add611a8a565b5b9250929050565b600080600080600060608688031215611b0157611b0061178d565b5b6000611b0f888289016117ae565b955050602086013567ffffffffffffffff811115611b3057611b2f611792565b5b611b3c88828901611a8f565b9450945050604086013567ffffffffffffffff811115611b5f57611b5e611792565b5b611b6b88828901611a8f565b92509250509295509295909350565b6000819050919050565b6000611b9f611b9a611b95846119a5565b611b7a565b6119a5565b9050919050565b6000611bb182611b84565b9050919050565b6000611bc382611ba6565b9050919050565b611bd381611bb8565b82525050565b6000602082019050611bee6000830184611bca565b92915050565b60008083601f840112611c0a57611c09611a80565b5b8235905067ffffffffffffffff811115611c2757611c26611a85565b5b602083019150836020820283011115611c4357611c42611a8a565b5b9250929050565b600080600060408486031215611c6357611c6261178d565b5b6000611c71868287016117ae565b935050602084013567ffffffffffffffff811115611c9257611c91611792565b5b611c9e86828701611bf4565b92509250509250925092565b60008060008060608587031215611cc457611cc361178d565b5b6000611cd2878288016117ae565b9450506020611ce3878288016117ae565b935050604085013567ffffffffffffffff811115611d0457611d03611792565b5b611d1087828801611a8f565b925092505092959194509250565b611d27816119c5565b8114611d3257600080fd5b50565b600081359050611d4481611d1e565b92915050565b600060208284031215611d6057611d5f61178d565b5b6000611d6e84828501611d35565b91505092915050565b7f4e487b7100000000000000000000000000000000000000000000000000000000600052601160045260246000fd5b6000611db182611759565b9150611dbc83611759565b9250817fffffffffffffffffffffffffffffffffffffffffffffffffffffffffffffffff0483118215151615611df557611df4611d77565b5b828202905092915050565b6000604082019050611e156000830185611763565b611e226020830184611763565b9392505050565b6000611e3482611759565b91507fffffffffffffffffffffffffffffffffffffffffffffffffffffffffffffffff821415611e6757611e66611d77565b5b600182019050919050565b7f4e487b7100000000000000000000000000000000000000000000000000000000600052603260045260246000fd5b7f4e487b7100000000000000000000000000000000000000000000000000000000600052602260045260246000fd5b60006002820490506001821680611ee857607f821691505b60208210811415611efc57611efb611ea1565b5b50919050565b600081905092915050565b6000611f188261183f565b611f228185611f02565b9350611f3281856020860161185b565b80840191505092915050565b6000611f4a8284611f0d565b915081905092915050565b600081519050919050565b6000819050602082019050919050565b6000819050919050565b6000611f868251611f70565b80915050919050565b600082821b905092915050565b6000611fa782611f55565b82611fb184611f60565b9050611fbc81611f7a565b92506020821015611ffc57611ff77fffffffffffffffffffffffffffffffffffffffffffffffffffffffffffffffff83602003600802611f8f565b831692505b5050919050565b82818337600083830152505050565b600061201e8385611f02565b935061202b838584612003565b82840190509392505050565b6000612044828486612012565b91508190509392505050565b600060408201905061206560008301856119d7565b6120726020830184611763565b9392505050565b612082816118d8565b811461208d57600080fd5b50565b60008151905061209f81612079565b92915050565b6000602082840312156120bb576120ba61178d565b5b60006120c984828501612090565b91505092915050565b600081905092915050565b50565b60006120ed6000836120d2565b91506120f8826120dd565b600082019050919050565b600061210e826120e0565b9150819050919050565b600080fd5b600080fd5b600080fd5b6000808335600160200384360303811261214457612143612118565b5b80840192508235915067ffffffffffffffff8211156121665761216561211d565b5b60208301925060018202360383131561218257612181612122565b5b509250929050565b600061219582611759565b91506121a083611759565b9250827fffffffffffffffffffffffffffffffffffffffffffffffffffffffffffffffff038211156121d5576121d4611d77565b5b828201905092915050565b60006040820190506121f560008301856119d7565b61220260208301846119d7565b9392505050565b60008151905061221881611797565b92915050565b6000602082840312156122345761223361178d565b5b600061224284828501612209565b91505092915050565b600060608201905061226060008301866119d7565b61226d60208301856119d7565b61227a6040830184611763565b949350505050565b600082825260208201905092915050565b7f4f776e61626c653a206e6577206f776e657220697320746865207a65726f206160008201527f6464726573730000000000000000000000000000000000000000000000000000602082015250565b60006122ef602683612282565b91506122fa82612293565b604082019050919050565b6000602082019050818103600083015261231e816122e2565b9050919050565b7f4f776e61626c653a2063616c6c6572206973206e6f7420746865206f776e6572600082015250565b600061235b602083612282565b915061236682612325565b602082019050919050565b6000602082019050818103600083015261238a8161234e565b905091905056fea26469706673582212202169fa7c6fc2a1994e72b05ecaba9698e9efcb074cbacd8fbf0a928ded0b154c64736f6c63430008080033",
  "linkReferences": {},
  "deployedLinkReferences": {}
}