{
  "address": "0xdAb87c1670972D389e625dcb9f8813dC5AB30bE5",
  "abi": [
    {
      "inputs": [
        {
          "internalType": "uint256",
          "name": "feePerBill",
          "type": "uint256"
        },
        {
          "internalType": "address",
          "name": "daiContractAddress",
          "type": "address"
        }
      ],
      "stateMutability": "nonpayable",
      "type": "constructor"
    },
    {
      "inputs": [],
      "name": "CryptoMoney__FeeNotMet",
      "type": "error"
    },
    {
      "inputs": [],
      "name": "CryptoMoney__InvalidCode",
      "type": "error"
    },
    {
      "inputs": [],
      "name": "CryptoMoney__InvalidWord",
      "type": "error"
    },
    {
      "inputs": [],
      "name": "CryptoMoney__NoFeesToWithdraw",
      "type": "error"
    },
    {
      "inputs": [],
      "name": "CryptoMoney__NotApproved",
      "type": "error"
    },
    {
      "inputs": [],
      "name": "CryptoMoney__TransferFailed",
      "type": "error"
    },
    {
      "anonymous": false,
      "inputs": [
        {
          "indexed": true,
          "internalType": "uint256",
          "name": "billId",
          "type": "uint256"
        },
        {
          "indexed": true,
          "internalType": "address",
          "name": "funder",
          "type": "address"
        },
        {
          "indexed": false,
          "internalType": "uint256",
          "name": "value",
          "type": "uint256"
        }
      ],
      "name": "BillFunded",
      "type": "event"
    },
    {
      "anonymous": false,
      "inputs": [
        {
          "indexed": true,
          "internalType": "uint256",
          "name": "billId",
          "type": "uint256"
        },
        {
          "indexed": false,
          "internalType": "uint256",
          "name": "value",
          "type": "uint256"
        }
      ],
      "name": "BillIssued",
      "type": "event"
    },
    {
      "anonymous": false,
      "inputs": [
        {
          "indexed": true,
          "internalType": "uint256",
          "name": "billId",
          "type": "uint256"
        },
        {
          "indexed": true,
          "internalType": "address",
          "name": "redeemer",
          "type": "address"
        },
        {
          "indexed": false,
          "internalType": "uint256",
          "name": "value",
          "type": "uint256"
        }
      ],
      "name": "BillRedeemed",
      "type": "event"
    },
    {
      "anonymous": false,
      "inputs": [
        {
          "indexed": true,
          "internalType": "uint256",
          "name": "requestId",
          "type": "uint256"
        },
        {
          "indexed": true,
          "internalType": "address",
          "name": "requester",
          "type": "address"
        },
        {
          "indexed": false,
          "internalType": "uint256",
          "name": "amountPerBill",
          "type": "uint256"
        },
        {
          "indexed": false,
          "internalType": "uint256",
          "name": "billCount",
          "type": "uint256"
        }
      ],
      "name": "NewRequest",
      "type": "event"
    },
    {
      "anonymous": false,
      "inputs": [
        {
          "indexed": true,
          "internalType": "address",
          "name": "previousOwner",
          "type": "address"
        },
        {
          "indexed": true,
          "internalType": "address",
          "name": "newOwner",
          "type": "address"
        }
      ],
      "name": "OwnershipTransferred",
      "type": "event"
    },
    {
      "inputs": [],
      "name": "claimFees",
      "outputs": [],
      "stateMutability": "nonpayable",
      "type": "function"
    },
    {
      "inputs": [
        {
          "internalType": "uint256",
          "name": "billId",
          "type": "uint256"
        },
        {
          "internalType": "uint256",
          "name": "amount",
          "type": "uint256"
        },
        {
          "internalType": "bytes",
          "name": "wordHash",
          "type": "bytes"
        }
      ],
      "name": "fund",
      "outputs": [],
      "stateMutability": "nonpayable",
      "type": "function"
    },
    {
      "inputs": [],
      "name": "getDaiContract",
      "outputs": [
        {
          "internalType": "contract IERC20",
          "name": "",
          "type": "address"
        }
      ],
      "stateMutability": "view",
      "type": "function"
    },
    {
      "inputs": [],
      "name": "getFeePerBill",
      "outputs": [
        {
          "internalType": "uint256",
          "name": "",
          "type": "uint256"
        }
      ],
      "stateMutability": "view",
      "type": "function"
    },
    {
      "inputs": [],
      "name": "getNextBillId",
      "outputs": [
        {
          "internalType": "uint256",
          "name": "",
          "type": "uint256"
        }
      ],
      "stateMutability": "view",
      "type": "function"
    },
    {
      "inputs": [],
      "name": "getNextRequestId",
      "outputs": [
        {
          "internalType": "uint256",
          "name": "",
          "type": "uint256"
        }
      ],
      "stateMutability": "view",
      "type": "function"
    },
    {
      "inputs": [
        {
          "internalType": "uint256",
          "name": "billId",
          "type": "uint256"
        }
      ],
      "name": "getOneBillFromBillId",
      "outputs": [
        {
          "components": [
            {
              "internalType": "uint256",
              "name": "id",
              "type": "uint256"
            },
            {
              "internalType": "uint256",
              "name": "value",
              "type": "uint256"
            },
            {
              "internalType": "bytes32",
              "name": "wordHash",
              "type": "bytes32"
            },
            {
              "internalType": "bytes32",
              "name": "codeHash",
              "type": "bytes32"
            },
            {
              "internalType": "bool",
              "name": "isFunded",
              "type": "bool"
            },
            {
              "internalType": "bool",
              "name": "isRedeemed",
              "type": "bool"
            }
          ],
          "internalType": "struct CryptoMoney.Bill",
          "name": "",
          "type": "tuple"
        }
      ],
      "stateMutability": "view",
      "type": "function"
    },
    {
      "inputs": [
        {
          "internalType": "uint256",
          "name": "requestId",
          "type": "uint256"
        }
      ],
      "name": "getOneRequest",
      "outputs": [
        {
          "components": [
            {
              "internalType": "uint256",
              "name": "amountPerBill",
              "type": "uint256"
            },
            {
              "internalType": "uint256",
              "name": "billCount",
              "type": "uint256"
            },
            {
              "internalType": "bool",
              "name": "isIssued",
              "type": "bool"
            },
            {
              "internalType": "address",
              "name": "requester",
              "type": "address"
            }
          ],
          "internalType": "struct CryptoMoney.Request",
          "name": "",
          "type": "tuple"
        }
      ],
      "stateMutability": "view",
      "type": "function"
    },
    {
      "inputs": [
        {
          "internalType": "uint256",
          "name": "requestId",
          "type": "uint256"
        },
        {
          "internalType": "bytes[]",
          "name": "codeHash",
          "type": "bytes[]"
        }
      ],
      "name": "issueBills",
      "outputs": [],
      "stateMutability": "nonpayable",
      "type": "function"
    },
    {
      "inputs": [],
      "name": "owner",
      "outputs": [
        {
          "internalType": "address",
          "name": "",
          "type": "address"
        }
      ],
      "stateMutability": "view",
      "type": "function"
    },
    {
      "inputs": [
        {
          "internalType": "uint256",
          "name": "billId",
          "type": "uint256"
        },
        {
          "internalType": "string",
          "name": "code",
          "type": "string"
        },
        {
          "internalType": "string",
          "name": "word",
          "type": "string"
        },
        {
          "internalType": "address",
          "name": "redeemAddress",
          "type": "address"
        }
      ],
      "name": "redeem",
      "outputs": [],
      "stateMutability": "nonpayable",
      "type": "function"
    },
    {
      "inputs": [],
      "name": "renounceOwnership",
      "outputs": [],
      "stateMutability": "nonpayable",
      "type": "function"
    },
    {
      "inputs": [
        {
          "internalType": "uint256",
          "name": "amountPerBill",
          "type": "uint256"
        },
        {
          "internalType": "uint256",
          "name": "billCount",
          "type": "uint256"
        }
      ],
      "name": "requestBills",
      "outputs": [],
      "stateMutability": "payable",
      "type": "function"
    },
    {
      "inputs": [
        {
          "internalType": "address",
          "name": "newOwner",
          "type": "address"
        }
      ],
      "name": "transferOwnership",
      "outputs": [],
      "stateMutability": "nonpayable",
      "type": "function"
    },
    {
      "inputs": [
        {
          "internalType": "uint256",
          "name": "updatedFee",
          "type": "uint256"
        }
      ],
      "name": "updateFee",
      "outputs": [],
      "stateMutability": "nonpayable",
      "type": "function"
    },
    {
      "inputs": [
        {
          "internalType": "uint256",
          "name": "billId",
          "type": "uint256"
        },
        {
          "internalType": "string",
          "name": "word",
          "type": "string"
        }
      ],
      "name": "verifyWord",
      "outputs": [
        {
          "internalType": "bool",
          "name": "",
          "type": "bool"
        }
      ],
      "stateMutability": "view",
      "type": "function"
    }
  ],
  "transactionHash": "0x5febaeb15300b9a43a1a5e092cf8128995996f3cfbd17b7cbb35f7009ef02388",
  "args": [
    "100000000000000",
    "0x11fE4B6AE13d2a6055C8D9cF65c55bac32B5d844"
  ],
  "numDeployments": 12,
  "solcInputHash": "ae3da725a1e68442802efcecbea215d8",
  "bytecode": "0x60806040523480156200001157600080fd5b506040516200239238038062002392833981810160405281019062000037919062000220565b620000576200004b620000af60201b60201c565b620000b760201b60201c565b8160028190555080600160006101000a81548173ffffffffffffffffffffffffffffffffffffffff021916908373ffffffffffffffffffffffffffffffffffffffff1602179055506001600581905550505062000267565b600033905090565b60008060009054906101000a900473ffffffffffffffffffffffffffffffffffffffff169050816000806101000a81548173ffffffffffffffffffffffffffffffffffffffff021916908373ffffffffffffffffffffffffffffffffffffffff1602179055508173ffffffffffffffffffffffffffffffffffffffff168173ffffffffffffffffffffffffffffffffffffffff167f8be0079c531659141344cd1fd0a4f28419497f9722a3daafe3b4186f6b6457e060405160405180910390a35050565b600080fd5b6000819050919050565b620001958162000180565b8114620001a157600080fd5b50565b600081519050620001b5816200018a565b92915050565b600073ffffffffffffffffffffffffffffffffffffffff82169050919050565b6000620001e882620001bb565b9050919050565b620001fa81620001db565b81146200020657600080fd5b50565b6000815190506200021a81620001ef565b92915050565b600080604083850312156200023a57620002396200017b565b5b60006200024a85828601620001a4565b92505060206200025d8582860162000209565b9150509250929050565b61211b80620002776000396000f3fe6080604052600436106100f35760003560e01c80639012c4a81161008a578063d99e735611610059578063d99e7356146102e3578063dfb270701461030e578063f2fde38b1461034b578063fed31d2b14610374576100f3565b80639012c4a81461024f578063ac0ca97f14610278578063d294f093146102a3578063d2e13f50146102ba576100f3565b8063758d8a07116100c6578063758d8a071461017f57806389dc538c146101bc5780638da5cb5b146101e75780638fd1db2314610212576100f3565b806310d4b3ef146100f85780633bc571d9146101215780634e9578741461014c578063715018a614610168575b600080fd5b34801561010457600080fd5b5061011f600480360381019061011a91906115ea565b61039d565b005b34801561012d57600080fd5b5061013661073c565b6040516101439190611698565b60405180910390f35b610166600480360381019061016191906116b3565b610746565b005b34801561017457600080fd5b5061017d6108c9565b005b34801561018b57600080fd5b506101a660048036038101906101a191906116f3565b6108dd565b6040516101b391906117de565b60405180910390f35b3480156101c857600080fd5b506101d1610983565b6040516101de9190611698565b60405180910390f35b3480156101f357600080fd5b506101fc61098d565b6040516102099190611808565b60405180910390f35b34801561021e57600080fd5b50610239600480360381019061023491906116f3565b6109b6565b6040516102469190611887565b60405180910390f35b34801561025b57600080fd5b50610276600480360381019061027191906116f3565b610a68565b005b34801561028457600080fd5b5061028d610a7a565b60405161029a9190611698565b60405180910390f35b3480156102af57600080fd5b506102b8610a84565b005b3480156102c657600080fd5b506102e160048036038101906102dc9190611902565b610b6c565b005b3480156102ef57600080fd5b506102f8610e5b565b60405161030591906119d5565b60405180910390f35b34801561031a57600080fd5b50610335600480360381019061033091906119f0565b610e85565b6040516103429190611a5b565b60405180910390f35b34801561035757600080fd5b50610372600480360381019061036d9190611a76565b610f52565b005b34801561038057600080fd5b5061039b60048036038101906103969190611af9565b610fd5565b005b600060066001866103ae9190611b88565b815481106103bf576103be611bbc565b5b90600052602060002090600502016040518060c0016040529081600082015481526020016001820154815260200160028201548152602001600382015481526020016004820160009054906101000a900460ff161515151581526020016004820160019054906101000a900460ff16151515158152505090506000816060015160405160200161044f9190611c0c565b60405160208183030381529060405280519060200120905060008560405160200161047a9190611ca1565b604051602081830303815290604052805190602001206040516020016104a09190611c0c565b6040516020818303038152906040528051906020012090508082146104f1576040517f720961d900000000000000000000000000000000000000000000000000000000815260040160405180910390fd5b600083604001516040516020016105089190611c0c565b6040516020818303038152906040528051906020012090506000866040516020016105339190611ca1565b604051602081830303815290604052805190602001206040516020016105599190611c0c565b6040516020818303038152906040528051906020012090508082146105aa576040517f8ee2dd2200000000000000000000000000000000000000000000000000000000815260040160405180910390fd5b6000856020015190506000600660018c6105c49190611b88565b815481106105d5576105d4611bbc565b5b9060005260206000209060050201600101819055506001600660018c6105fb9190611b88565b8154811061060c5761060b611bbc565b5b906000526020600020906005020160040160016101000a81548160ff021916908315150217905550600160009054906101000a900473ffffffffffffffffffffffffffffffffffffffff1673ffffffffffffffffffffffffffffffffffffffff1663a9059cbb88836040518363ffffffff1660e01b8152600401610691929190611cb8565b6020604051808303816000875af11580156106b0573d6000803e3d6000fd5b505050506040513d601f19601f820116820180604052508101906106d49190611d0d565b508673ffffffffffffffffffffffffffffffffffffffff1660018b6106f99190611b88565b7f816e534dcf0d45452e33e655eb85142edb307ee6cbe0b7e5a48f2357e82097b1836040516107289190611698565b60405180910390a350505050505050505050565b6000600354905090565b34816002546107559190611d3a565b111561078d576040517fd37dd26300000000000000000000000000000000000000000000000000000000815260040160405180910390fd5b60405180608001604052808381526020018281526020016000151581526020013373ffffffffffffffffffffffffffffffffffffffff16815250600460006003548152602001908152602001600020600082015181600001556020820151816001015560408201518160020160006101000a81548160ff02191690831515021790555060608201518160020160016101000a81548173ffffffffffffffffffffffffffffffffffffffff021916908373ffffffffffffffffffffffffffffffffffffffff1602179055509050503373ffffffffffffffffffffffffffffffffffffffff166003547f2f0eb673c0c8f9fa871ab69bbaa7ae2e6a722b2c3a4f14ecc52798c68c8e43b684846040516108a5929190611d94565b60405180910390a3600360008154809291906108c090611dbd565b91905055505050565b6108d1611232565b6108db60006112b0565b565b6108e561137c565b60066001836108f49190611b88565b8154811061090557610904611bbc565b5b90600052602060002090600502016040518060c0016040529081600082015481526020016001820154815260200160028201548152602001600382015481526020016004820160009054906101000a900460ff161515151581526020016004820160019054906101000a900460ff1615151515815250509050919050565b6000600554905090565b60008060009054906101000a900473ffffffffffffffffffffffffffffffffffffffff16905090565b6109be6113bc565b6004600083815260200190815260200160002060405180608001604052908160008201548152602001600182015481526020016002820160009054906101000a900460ff161515151581526020016002820160019054906101000a900473ffffffffffffffffffffffffffffffffffffffff1673ffffffffffffffffffffffffffffffffffffffff1673ffffffffffffffffffffffffffffffffffffffff16815250509050919050565b610a70611232565b8060028190555050565b6000600254905090565b610a8c611232565b60004703610ac6576040517f1b6ec47900000000000000000000000000000000000000000000000000000000815260040160405180910390fd5b60003373ffffffffffffffffffffffffffffffffffffffff1647604051610aec90611e36565b60006040518083038185875af1925050503d8060008114610b29576040519150601f19603f3d011682016040523d82523d6000602084013e610b2e565b606091505b5050905080610b69576040517f093c8ae900000000000000000000000000000000000000000000000000000000815260040160405180910390fd5b50565b60006006600186610b7d9190611b88565b81548110610b8e57610b8d611bbc565b5b90600052602060002090600502016040518060c0016040529081600082015481526020016001820154815260200160028201548152602001600382015481526020016004820160009054906101000a900460ff161515151581526020016004820160019054906101000a900460ff16151515158152505090506000600160009054906101000a900473ffffffffffffffffffffffffffffffffffffffff16905081602001518173ffffffffffffffffffffffffffffffffffffffff1663dd62ed3e33306040518363ffffffff1660e01b8152600401610c6e929190611e4b565b602060405180830381865afa158015610c8b573d6000803e3d6000fd5b505050506040513d601f19601f82011682018060405250810190610caf9190611e89565b1015610ce7576040517f26ec6f6100000000000000000000000000000000000000000000000000000000815260040160405180910390fd5b838390610cf49190611ece565b6006600188610d039190611b88565b81548110610d1457610d13611bbc565b5b90600052602060002090600502016002018190555060016006600188610d3a9190611b88565b81548110610d4b57610d4a611bbc565b5b906000526020600020906005020160040160006101000a81548160ff0219169083151502179055508073ffffffffffffffffffffffffffffffffffffffff166323b872dd333085602001516040518463ffffffff1660e01b8152600401610db493929190611f2d565b6020604051808303816000875af1158015610dd3573d6000803e3d6000fd5b505050506040513d601f19601f82011682018060405250810190610df79190611d0d565b503373ffffffffffffffffffffffffffffffffffffffff16600187610e1c9190611b88565b7f679c0fa2bd335c7d88d476ff1f96387a45db3e5e008c28bd6fa88b2615117d2c87604051610e4b9190611698565b60405180910390a3505050505050565b6000600160009054906101000a900473ffffffffffffffffffffffffffffffffffffffff16905090565b6000806006600185610e979190611b88565b81548110610ea857610ea7611bbc565b5b906000526020600020906005020160020154604051602001610eca9190611c0c565b604051602081830303815290604052805190602001209050600083604051602001610ef59190611ca1565b60405160208183030381529060405280519060200120604051602001610f1b9190611c0c565b604051602081830303815290604052805190602001209050808203610f4557600192505050610f4c565b6000925050505b92915050565b610f5a611232565b600073ffffffffffffffffffffffffffffffffffffffff168173ffffffffffffffffffffffffffffffffffffffff1603610fc9576040517f08c379a0000000000000000000000000000000000000000000000000000000008152600401610fc090611fe7565b60405180910390fd5b610fd2816112b0565b50565b610fdd611232565b60005b828290508110156111fd5760006004600086815260200190815260200160002060405180608001604052908160008201548152602001600182015481526020016002820160009054906101000a900460ff161515151581526020016002820160019054906101000a900473ffffffffffffffffffffffffffffffffffffffff1673ffffffffffffffffffffffffffffffffffffffff1673ffffffffffffffffffffffffffffffffffffffff1681525050905060066040518060c00160405280600554815260200183600001518152602001600080191681526020018686868181106110ce576110cd611bbc565b5b90506020028101906110e09190612016565b906110eb9190611ece565b81526020016000151581526020016000151581525090806001815401808255809150506001900390600052602060002090600502016000909190919091506000820151816000015560208201518160010155604082015181600201556060820151816003015560808201518160040160006101000a81548160ff02191690831515021790555060a08201518160040160016101000a81548160ff02191690831515021790555050506005547f487e7c9b0bbf56330e4a2bd71dc23c0c96e56ab21ab070bf9c01054e933e1a5f82600001516040516111c99190611698565b60405180910390a2600560008154809291906111e490611dbd565b91905055505080806111f590611dbd565b915050610fe0565b5060016004600085815260200190815260200160002060020160006101000a81548160ff021916908315150217905550505050565b61123a611374565b73ffffffffffffffffffffffffffffffffffffffff1661125861098d565b73ffffffffffffffffffffffffffffffffffffffff16146112ae576040517f08c379a00000000000000000000000000000000000000000000000000000000081526004016112a5906120c5565b60405180910390fd5b565b60008060009054906101000a900473ffffffffffffffffffffffffffffffffffffffff169050816000806101000a81548173ffffffffffffffffffffffffffffffffffffffff021916908373ffffffffffffffffffffffffffffffffffffffff1602179055508173ffffffffffffffffffffffffffffffffffffffff168173ffffffffffffffffffffffffffffffffffffffff167f8be0079c531659141344cd1fd0a4f28419497f9722a3daafe3b4186f6b6457e060405160405180910390a35050565b600033905090565b6040518060c00160405280600081526020016000815260200160008019168152602001600080191681526020016000151581526020016000151581525090565b60405180608001604052806000815260200160008152602001600015158152602001600073ffffffffffffffffffffffffffffffffffffffff1681525090565b6000604051905090565b600080fd5b600080fd5b6000819050919050565b61142381611410565b811461142e57600080fd5b50565b6000813590506114408161141a565b92915050565b600080fd5b600080fd5b6000601f19601f8301169050919050565b7f4e487b7100000000000000000000000000000000000000000000000000000000600052604160045260246000fd5b61149982611450565b810181811067ffffffffffffffff821117156114b8576114b7611461565b5b80604052505050565b60006114cb6113fc565b90506114d78282611490565b919050565b600067ffffffffffffffff8211156114f7576114f6611461565b5b61150082611450565b9050602081019050919050565b82818337600083830152505050565b600061152f61152a846114dc565b6114c1565b90508281526020810184848401111561154b5761154a61144b565b5b61155684828561150d565b509392505050565b600082601f83011261157357611572611446565b5b813561158384826020860161151c565b91505092915050565b600073ffffffffffffffffffffffffffffffffffffffff82169050919050565b60006115b78261158c565b9050919050565b6115c7816115ac565b81146115d257600080fd5b50565b6000813590506115e4816115be565b92915050565b6000806000806080858703121561160457611603611406565b5b600061161287828801611431565b945050602085013567ffffffffffffffff8111156116335761163261140b565b5b61163f8782880161155e565b935050604085013567ffffffffffffffff8111156116605761165f61140b565b5b61166c8782880161155e565b925050606061167d878288016115d5565b91505092959194509250565b61169281611410565b82525050565b60006020820190506116ad6000830184611689565b92915050565b600080604083850312156116ca576116c9611406565b5b60006116d885828601611431565b92505060206116e985828601611431565b9150509250929050565b60006020828403121561170957611708611406565b5b600061171784828501611431565b91505092915050565b61172981611410565b82525050565b6000819050919050565b6117428161172f565b82525050565b60008115159050919050565b61175d81611748565b82525050565b60c0820160008201516117796000850182611720565b50602082015161178c6020850182611720565b50604082015161179f6040850182611739565b5060608201516117b26060850182611739565b5060808201516117c56080850182611754565b5060a08201516117d860a0850182611754565b50505050565b600060c0820190506117f36000830184611763565b92915050565b611802816115ac565b82525050565b600060208201905061181d60008301846117f9565b92915050565b61182c816115ac565b82525050565b6080820160008201516118486000850182611720565b50602082015161185b6020850182611720565b50604082015161186e6040850182611754565b5060608201516118816060850182611823565b50505050565b600060808201905061189c6000830184611832565b92915050565b600080fd5b600080fd5b60008083601f8401126118c2576118c1611446565b5b8235905067ffffffffffffffff8111156118df576118de6118a2565b5b6020830191508360018202830111156118fb576118fa6118a7565b5b9250929050565b6000806000806060858703121561191c5761191b611406565b5b600061192a87828801611431565b945050602061193b87828801611431565b935050604085013567ffffffffffffffff81111561195c5761195b61140b565b5b611968878288016118ac565b925092505092959194509250565b6000819050919050565b600061199b6119966119918461158c565b611976565b61158c565b9050919050565b60006119ad82611980565b9050919050565b60006119bf826119a2565b9050919050565b6119cf816119b4565b82525050565b60006020820190506119ea60008301846119c6565b92915050565b60008060408385031215611a0757611a06611406565b5b6000611a1585828601611431565b925050602083013567ffffffffffffffff811115611a3657611a3561140b565b5b611a428582860161155e565b9150509250929050565b611a5581611748565b82525050565b6000602082019050611a706000830184611a4c565b92915050565b600060208284031215611a8c57611a8b611406565b5b6000611a9a848285016115d5565b91505092915050565b60008083601f840112611ab957611ab8611446565b5b8235905067ffffffffffffffff811115611ad657611ad56118a2565b5b602083019150836020820283011115611af257611af16118a7565b5b9250929050565b600080600060408486031215611b1257611b11611406565b5b6000611b2086828701611431565b935050602084013567ffffffffffffffff811115611b4157611b4061140b565b5b611b4d86828701611aa3565b92509250509250925092565b7f4e487b7100000000000000000000000000000000000000000000000000000000600052601160045260246000fd5b6000611b9382611410565b9150611b9e83611410565b925082821015611bb157611bb0611b59565b5b828203905092915050565b7f4e487b7100000000000000000000000000000000000000000000000000000000600052603260045260246000fd5b6000819050919050565b611c06611c018261172f565b611beb565b82525050565b6000611c188284611bf5565b60208201915081905092915050565b600081519050919050565b600081905092915050565b60005b83811015611c5b578082015181840152602081019050611c40565b83811115611c6a576000848401525b50505050565b6000611c7b82611c27565b611c858185611c32565b9350611c95818560208601611c3d565b80840191505092915050565b6000611cad8284611c70565b915081905092915050565b6000604082019050611ccd60008301856117f9565b611cda6020830184611689565b9392505050565b611cea81611748565b8114611cf557600080fd5b50565b600081519050611d0781611ce1565b92915050565b600060208284031215611d2357611d22611406565b5b6000611d3184828501611cf8565b91505092915050565b6000611d4582611410565b9150611d5083611410565b9250817fffffffffffffffffffffffffffffffffffffffffffffffffffffffffffffffff0483118215151615611d8957611d88611b59565b5b828202905092915050565b6000604082019050611da96000830185611689565b611db66020830184611689565b9392505050565b6000611dc882611410565b91507fffffffffffffffffffffffffffffffffffffffffffffffffffffffffffffffff8203611dfa57611df9611b59565b5b600182019050919050565b600081905092915050565b50565b6000611e20600083611e05565b9150611e2b82611e10565b600082019050919050565b6000611e4182611e13565b9150819050919050565b6000604082019050611e6060008301856117f9565b611e6d60208301846117f9565b9392505050565b600081519050611e838161141a565b92915050565b600060208284031215611e9f57611e9e611406565b5b6000611ead84828501611e74565b91505092915050565b600082905092915050565b600082821b905092915050565b6000611eda8383611eb6565b82611ee5813561172f565b92506020821015611f2557611f207fffffffffffffffffffffffffffffffffffffffffffffffffffffffffffffffff83602003600802611ec1565b831692505b505092915050565b6000606082019050611f4260008301866117f9565b611f4f60208301856117f9565b611f5c6040830184611689565b949350505050565b600082825260208201905092915050565b7f4f776e61626c653a206e6577206f776e657220697320746865207a65726f206160008201527f6464726573730000000000000000000000000000000000000000000000000000602082015250565b6000611fd1602683611f64565b9150611fdc82611f75565b604082019050919050565b6000602082019050818103600083015261200081611fc4565b9050919050565b600080fd5b600080fd5b600080fd5b6000808335600160200384360303811261203357612032612007565b5b80840192508235915067ffffffffffffffff8211156120555761205461200c565b5b60208301925060018202360383131561207157612070612011565b5b509250929050565b7f4f776e61626c653a2063616c6c6572206973206e6f7420746865206f776e6572600082015250565b60006120af602083611f64565b91506120ba82612079565b602082019050919050565b600060208201905081810360008301526120de816120a2565b905091905056fea264697066735822122061ec38741bd7f8954bb7199118bb4f70728a05bc4b780787ba5a7b80a54a0ffb64736f6c634300080d0033",
  "devdoc": {
    "kind": "dev",
    "methods": {
      "owner()": {
        "details": "Returns the address of the current owner."
      },
      "renounceOwnership()": {
        "details": "Leaves the contract without owner. It will not be possible to call `onlyOwner` functions anymore. Can only be called by the current owner. NOTE: Renouncing ownership will leave the contract without an owner, thereby removing any functionality that is only available to the owner."
      },
      "transferOwnership(address)": {
        "details": "Transfers ownership of the contract to a new account (`newOwner`). Can only be called by the current owner."
      }
    },
    "version": 1
  },
  "userdoc": {
    "kind": "user",
    "methods": {},
    "version": 1
  },
  "storageLayout": {
    "storage": [
      {
        "astId": 8671,
        "contract": "contracts/CryptoMoney.sol:CryptoMoney",
        "label": "_owner",
        "offset": 0,
        "slot": "0",
        "type": "t_address"
      },
      {
        "astId": 23,
        "contract": "contracts/CryptoMoney.sol:CryptoMoney",
        "label": "s_daiContract",
        "offset": 0,
        "slot": "1",
        "type": "t_contract(IERC20)8854"
      },
      {
        "astId": 25,
        "contract": "contracts/CryptoMoney.sol:CryptoMoney",
        "label": "s_feeInWeiPerBill",
        "offset": 0,
        "slot": "2",
        "type": "t_uint256"
      },
      {
        "astId": 27,
        "contract": "contracts/CryptoMoney.sol:CryptoMoney",
        "label": "s_requestId",
        "offset": 0,
        "slot": "3",
        "type": "t_uint256"
      },
      {
        "astId": 32,
        "contract": "contracts/CryptoMoney.sol:CryptoMoney",
        "label": "s_requestIdToRequest",
        "offset": 0,
        "slot": "4",
        "type": "t_mapping(t_uint256,t_struct(Request)47_storage)"
      },
      {
        "astId": 34,
        "contract": "contracts/CryptoMoney.sol:CryptoMoney",
        "label": "s_nextBillId",
        "offset": 0,
        "slot": "5",
        "type": "t_uint256"
      },
      {
        "astId": 38,
        "contract": "contracts/CryptoMoney.sol:CryptoMoney",
        "label": "s_bills",
        "offset": 0,
        "slot": "6",
        "type": "t_array(t_struct(Bill)60_storage)dyn_storage"
      }
    ],
    "types": {
      "t_address": {
        "encoding": "inplace",
        "label": "address",
        "numberOfBytes": "20"
      },
      "t_array(t_struct(Bill)60_storage)dyn_storage": {
        "base": "t_struct(Bill)60_storage",
        "encoding": "dynamic_array",
        "label": "struct CryptoMoney.Bill[]",
        "numberOfBytes": "32"
      },
      "t_bool": {
        "encoding": "inplace",
        "label": "bool",
        "numberOfBytes": "1"
      },
      "t_bytes32": {
        "encoding": "inplace",
        "label": "bytes32",
        "numberOfBytes": "32"
      },
      "t_contract(IERC20)8854": {
        "encoding": "inplace",
        "label": "contract IERC20",
        "numberOfBytes": "20"
      },
      "t_mapping(t_uint256,t_struct(Request)47_storage)": {
        "encoding": "mapping",
        "key": "t_uint256",
        "label": "mapping(uint256 => struct CryptoMoney.Request)",
        "numberOfBytes": "32",
        "value": "t_struct(Request)47_storage"
      },
      "t_struct(Bill)60_storage": {
        "encoding": "inplace",
        "label": "struct CryptoMoney.Bill",
        "members": [
          {
            "astId": 49,
            "contract": "contracts/CryptoMoney.sol:CryptoMoney",
            "label": "id",
            "offset": 0,
            "slot": "0",
            "type": "t_uint256"
          },
          {
            "astId": 51,
            "contract": "contracts/CryptoMoney.sol:CryptoMoney",
            "label": "value",
            "offset": 0,
            "slot": "1",
            "type": "t_uint256"
          },
          {
            "astId": 53,
            "contract": "contracts/CryptoMoney.sol:CryptoMoney",
            "label": "wordHash",
            "offset": 0,
            "slot": "2",
            "type": "t_bytes32"
          },
          {
            "astId": 55,
            "contract": "contracts/CryptoMoney.sol:CryptoMoney",
            "label": "codeHash",
            "offset": 0,
            "slot": "3",
            "type": "t_bytes32"
          },
          {
            "astId": 57,
            "contract": "contracts/CryptoMoney.sol:CryptoMoney",
            "label": "isFunded",
            "offset": 0,
            "slot": "4",
            "type": "t_bool"
          },
          {
            "astId": 59,
            "contract": "contracts/CryptoMoney.sol:CryptoMoney",
            "label": "isRedeemed",
            "offset": 1,
            "slot": "4",
            "type": "t_bool"
          }
        ],
        "numberOfBytes": "160"
      },
      "t_struct(Request)47_storage": {
        "encoding": "inplace",
        "label": "struct CryptoMoney.Request",
        "members": [
          {
            "astId": 40,
            "contract": "contracts/CryptoMoney.sol:CryptoMoney",
            "label": "amountPerBill",
            "offset": 0,
            "slot": "0",
            "type": "t_uint256"
          },
          {
            "astId": 42,
            "contract": "contracts/CryptoMoney.sol:CryptoMoney",
            "label": "billCount",
            "offset": 0,
            "slot": "1",
            "type": "t_uint256"
          },
          {
            "astId": 44,
            "contract": "contracts/CryptoMoney.sol:CryptoMoney",
            "label": "isIssued",
            "offset": 0,
            "slot": "2",
            "type": "t_bool"
          },
          {
            "astId": 46,
            "contract": "contracts/CryptoMoney.sol:CryptoMoney",
            "label": "requester",
            "offset": 1,
            "slot": "2",
            "type": "t_address"
          }
        ],
        "numberOfBytes": "96"
      },
      "t_uint256": {
        "encoding": "inplace",
        "label": "uint256",
        "numberOfBytes": "32"
      }
    }
  }
}